{
  "contractName": "Storage",
  "abi": [
    {
      "constant": false,
      "inputs": [
        {
          "name": "_a",
          "type": "uint256"
        }
      ],
      "name": "setter",
      "outputs": [],
      "payable": false,
      "stateMutability": "nonpayable",
      "type": "function"
    },
    {
      "constant": true,
      "inputs": [],
      "name": "getter",
      "outputs": [
        {
          "name": "",
          "type": "uint256"
        }
      ],
      "payable": false,
      "stateMutability": "view",
      "type": "function"
    }
  ],
  "bytecode": "0x6080604052600a60005534801561001557600080fd5b5060e6806100246000396000f3fe6080604052600436106043576000357c010000000000000000000000000000000000000000000000000000000090048063993a04b7146048578063d423740b146070575b600080fd5b348015605357600080fd5b50605a60a7565b6040518082815260200191505060405180910390f35b348015607b57600080fd5b5060a560048036036020811015609057600080fd5b810190808035906020019092919050505060b0565b005b60008054905090565b806000819055505056fea165627a7a7230582093d3e19969b47ce476b63e52f971a613f9f9b12721afe281113acfa8c70a02bc0029",
  "source": "// SPDX-License-Identifier: MIT\r\npragma solidity >=0.4.22 <0.9.0;\r\n\r\ncontract Storage{\r\n    uint a =10;\r\n    function setter(uint _a)public{\r\n        a = _a;\r\n    } \r\n    function getter() public view returns(uint){\r\n        return a;\r\n    }\r\n}",
  "sourcePath": "D:\\justcoding~things\\Backend\\contracts\\Storage.sol",
  "compiler": {
    "name": "solc",
    "version": "0.5.1+commit.c8a2cb62.Emscripten.clang"
  },
  "schemaVersion": "3.4.16",
  "updatedAt": "2024-08-03T10:31:59.834Z",
  "networkType": "ethereum",
  "devdoc": {
    "methods": {}
  },
  "userdoc": {
    "methods": {}
  }
}